{"abi":[{"type":"constructor","inputs":[],"stateMutability":"nonpayable"},{"type":"receive","stateMutability":"payable"},{"type":"function","name":"balance","inputs":[],"outputs":[{"name":"","type":"uint256","internalType":"uint256"}],"stateMutability":"view"},{"type":"function","name":"owner","inputs":[],"outputs":[{"name":"","type":"address","internalType":"address"}],"stateMutability":"view"},{"type":"function","name":"withdraw","inputs":[{"name":"amount","type":"uint256","internalType":"uint256"}],"outputs":[],"stateMutability":"nonpayable"}],"bytecode":{"object":"0x6080604052348015600e575f5ffd5b50335f5f6101000a81548173ffffffffffffffffffffffffffffffffffffffff021916908373ffffffffffffffffffffffffffffffffffffffff16021790555061036e8061005b5f395ff3fe608060405260043610610037575f3560e01c80632e1a7d4d146100425780638da5cb5b1461006a578063b69ef8a8146100945761003e565b3661003e57005b5f5ffd5b34801561004d575f5ffd5b5061006860048036038101906100639190610215565b6100be565b005b348015610075575f5ffd5b5061007e6101b3565b60405161008b919061027f565b60405180910390f35b34801561009f575f5ffd5b506100a86101d7565b6040516100b591906102a7565b60405180910390f35b5f5f9054906101000a900473ffffffffffffffffffffffffffffffffffffffff1673ffffffffffffffffffffffffffffffffffffffff163373ffffffffffffffffffffffffffffffffffffffff161461014c576040517f08c379a00000000000000000000000000000000000000000000000000000000081526004016101439061031a565b60405180910390fd5b5f5f9054906101000a900473ffffffffffffffffffffffffffffffffffffffff1673ffffffffffffffffffffffffffffffffffffffff166108fc8290811502906040515f60405180830381858888f193505050501580156101af573d5f5f3e3d5ffd5b5050565b5f5f9054906101000a900473ffffffffffffffffffffffffffffffffffffffff1681565b5f47905090565b5f5ffd5b5f819050919050565b6101f4816101e2565b81146101fe575f5ffd5b50565b5f8135905061020f816101eb565b92915050565b5f6020828403121561022a576102296101de565b5b5f61023784828501610201565b91505092915050565b5f73ffffffffffffffffffffffffffffffffffffffff82169050919050565b5f61026982610240565b9050919050565b6102798161025f565b82525050565b5f6020820190506102925f830184610270565b92915050565b6102a1816101e2565b82525050565b5f6020820190506102ba5f830184610298565b92915050565b5f82825260208201905092915050565b7f4e6f74206f776e657200000000000000000000000000000000000000000000005f82015250565b5f6103046009836102c0565b915061030f826102d0565b602082019050919050565b5f6020820190508181035f830152610331816102f8565b905091905056fea264697066735822122066868f58c731f6115fb6fca6cf8fe50ca33bb76cd14aa2a9fb2293793ab4891664736f6c634300081e0033","linkReferences":{}},"methodIdentifiers":{"balance()":"b69ef8a8","owner()":"8da5cb5b","withdraw(uint256)":"2e1a7d4d"},"id":0}